{
  "contractName": "BasicStorage",
  "abi": [
    {
      "anonymous": false,
      "inputs": [
        {
          "indexed": true,
          "name": "_from",
          "type": "address"
        },
        {
          "indexed": false,
          "name": "_x",
          "type": "uint256"
        }
      ],
      "name": "SetEvent",
      "type": "event"
    },
    {
      "constant": false,
      "inputs": [
        {
          "name": "x",
          "type": "uint256"
        }
      ],
      "name": "set",
      "outputs": [],
      "payable": false,
      "stateMutability": "nonpayable",
      "type": "function"
    },
    {
      "constant": true,
      "inputs": [],
      "name": "get",
      "outputs": [
        {
          "name": "",
          "type": "uint256"
        }
      ],
      "payable": false,
      "stateMutability": "view",
      "type": "function"
    }
  ],
  "bytecode": "0x6060604052341561000f57600080fd5b6101218061001e6000396000f3006060604052600436106049576000357c0100000000000000000000000000000000000000000000000000000000900463ffffffff16806360fe47b114604e5780636d4ce63c14606e575b600080fd5b3415605857600080fd5b606c60048080359060200190919050506094565b005b3415607857600080fd5b607e60ec565b6040518082815260200191505060405180910390f35b806000819055503373ffffffffffffffffffffffffffffffffffffffff167f8431787be6b5c9dab7738282443998cf2e2523223e20846969c9476f03037c87826040518082815260200191505060405180910390a250565b600080549050905600a165627a7a72305820ff3bffa27a1da3d329c38e61bca5836d14ac1ee2a0f516cac2c2e6587864ade20029",
  "source": "pragma solidity ^0.4.0;\n\ncontract BasicStorage{\n    uint storedData;\n\n    event SetEvent(\n        address indexed _from,\n        uint _x\n    );\n    \n    function set(uint x) public {\n        storedData = x;\n        emit SetEvent(msg.sender, x);\n    }\n\n    function get() public constant returns (uint) {\n        return storedData;\n    }\n}",
  "sourcePath": "/Users/rhernande/git-personal/eth/truffle-project/contracts/basicStorage.sol",
  "compiler": {
    "name": "solc",
    "version": "0.4.21+commit.dfe3193c.Emscripten.clang"
  },
  "schemaVersion": "2.0.0",
  "updatedAt": "2018-04-05T22:20:44.983Z"
}